{
  "contractName": "stakeTokens",
  "abi": [
    {
      "inputs": [
        {
          "internalType": "uint256",
          "name": "_totalSupply",
          "type": "uint256"
        }
      ],
      "stateMutability": "nonpayable",
      "type": "constructor"
    },
    {
      "anonymous": false,
      "inputs": [
        {
          "indexed": true,
          "internalType": "address",
          "name": "owner",
          "type": "address"
        },
        {
          "indexed": true,
          "internalType": "address",
          "name": "spender",
          "type": "address"
        },
        {
          "indexed": false,
          "internalType": "uint256",
          "name": "value",
          "type": "uint256"
        }
      ],
      "name": "Approval",
      "type": "event"
    },
    {
      "anonymous": false,
      "inputs": [
        {
          "indexed": true,
          "internalType": "address",
          "name": "from",
          "type": "address"
        },
        {
          "indexed": true,
          "internalType": "address",
          "name": "to",
          "type": "address"
        },
        {
          "indexed": false,
          "internalType": "uint256",
          "name": "value",
          "type": "uint256"
        }
      ],
      "name": "Transfer",
      "type": "event"
    },
    {
      "anonymous": false,
      "inputs": [
        {
          "indexed": false,
          "internalType": "uint256",
          "name": "reward",
          "type": "uint256"
        }
      ],
      "name": "evt",
      "type": "event"
    },
    {
      "inputs": [
        {
          "internalType": "address",
          "name": "owner",
          "type": "address"
        },
        {
          "internalType": "address",
          "name": "spender",
          "type": "address"
        }
      ],
      "name": "allowance",
      "outputs": [
        {
          "internalType": "uint256",
          "name": "",
          "type": "uint256"
        }
      ],
      "stateMutability": "view",
      "type": "function"
    },
    {
      "inputs": [
        {
          "internalType": "address",
          "name": "spender",
          "type": "address"
        },
        {
          "internalType": "uint256",
          "name": "amount",
          "type": "uint256"
        }
      ],
      "name": "approve",
      "outputs": [
        {
          "internalType": "bool",
          "name": "",
          "type": "bool"
        }
      ],
      "stateMutability": "nonpayable",
      "type": "function"
    },
    {
      "inputs": [
        {
          "internalType": "address",
          "name": "account",
          "type": "address"
        }
      ],
      "name": "balanceOf",
      "outputs": [
        {
          "internalType": "uint256",
          "name": "",
          "type": "uint256"
        }
      ],
      "stateMutability": "view",
      "type": "function"
    },
    {
      "inputs": [],
      "name": "decimals",
      "outputs": [
        {
          "internalType": "uint8",
          "name": "",
          "type": "uint8"
        }
      ],
      "stateMutability": "view",
      "type": "function"
    },
    {
      "inputs": [
        {
          "internalType": "address",
          "name": "spender",
          "type": "address"
        },
        {
          "internalType": "uint256",
          "name": "subtractedValue",
          "type": "uint256"
        }
      ],
      "name": "decreaseAllowance",
      "outputs": [
        {
          "internalType": "bool",
          "name": "",
          "type": "bool"
        }
      ],
      "stateMutability": "nonpayable",
      "type": "function"
    },
    {
      "inputs": [
        {
          "internalType": "address",
          "name": "spender",
          "type": "address"
        },
        {
          "internalType": "uint256",
          "name": "addedValue",
          "type": "uint256"
        }
      ],
      "name": "increaseAllowance",
      "outputs": [
        {
          "internalType": "bool",
          "name": "",
          "type": "bool"
        }
      ],
      "stateMutability": "nonpayable",
      "type": "function"
    },
    {
      "inputs": [],
      "name": "name",
      "outputs": [
        {
          "internalType": "string",
          "name": "",
          "type": "string"
        }
      ],
      "stateMutability": "view",
      "type": "function"
    },
    {
      "inputs": [],
      "name": "symbol",
      "outputs": [
        {
          "internalType": "string",
          "name": "",
          "type": "string"
        }
      ],
      "stateMutability": "view",
      "type": "function"
    },
    {
      "inputs": [
        {
          "internalType": "address",
          "name": "",
          "type": "address"
        }
      ],
      "name": "timestampMap",
      "outputs": [
        {
          "internalType": "uint256",
          "name": "",
          "type": "uint256"
        }
      ],
      "stateMutability": "view",
      "type": "function"
    },
    {
      "inputs": [],
      "name": "totalSupply",
      "outputs": [
        {
          "internalType": "uint256",
          "name": "",
          "type": "uint256"
        }
      ],
      "stateMutability": "view",
      "type": "function"
    },
    {
      "inputs": [
        {
          "internalType": "address",
          "name": "recipient",
          "type": "address"
        },
        {
          "internalType": "uint256",
          "name": "amount",
          "type": "uint256"
        }
      ],
      "name": "transfer",
      "outputs": [
        {
          "internalType": "bool",
          "name": "",
          "type": "bool"
        }
      ],
      "stateMutability": "nonpayable",
      "type": "function"
    },
    {
      "inputs": [
        {
          "internalType": "address",
          "name": "sender",
          "type": "address"
        },
        {
          "internalType": "address",
          "name": "recipient",
          "type": "address"
        },
        {
          "internalType": "uint256",
          "name": "amount",
          "type": "uint256"
        }
      ],
      "name": "transferFrom",
      "outputs": [
        {
          "internalType": "bool",
          "name": "",
          "type": "bool"
        }
      ],
      "stateMutability": "nonpayable",
      "type": "function"
    },
    {
      "inputs": [
        {
          "internalType": "uint256",
          "name": "_stakeAmt",
          "type": "uint256"
        }
      ],
      "name": "stakeToken",
      "outputs": [],
      "stateMutability": "nonpayable",
      "type": "function"
    },
    {
      "inputs": [
        {
          "internalType": "address",
          "name": "_stakeHolderAddr",
          "type": "address"
        }
      ],
      "name": "isStakeHolder",
      "outputs": [
        {
          "internalType": "bool",
          "name": "",
          "type": "bool"
        }
      ],
      "stateMutability": "view",
      "type": "function"
    },
    {
      "inputs": [
        {
          "internalType": "address",
          "name": "_stakeHolderAddr",
          "type": "address"
        }
      ],
      "name": "addStakeHolder",
      "outputs": [],
      "stateMutability": "nonpayable",
      "type": "function"
    },
    {
      "inputs": [
        {
          "internalType": "address",
          "name": "_stakeHolderAddr",
          "type": "address"
        }
      ],
      "name": "stakeOf",
      "outputs": [
        {
          "internalType": "uint256",
          "name": "",
          "type": "uint256"
        }
      ],
      "stateMutability": "view",
      "type": "function"
    },
    {
      "inputs": [],
      "name": "withdraw",
      "outputs": [],
      "stateMutability": "nonpayable",
      "type": "function"
    },
    {
      "inputs": [],
      "name": "timeAfterStaked",
      "outputs": [
        {
          "internalType": "uint256",
          "name": "timeInMinutes",
          "type": "uint256"
        }
      ],
      "stateMutability": "view",
      "type": "function"
    }
  ],
  "bytecode": "0x608060405260006008553480156200001657600080fd5b50604051620022e6380380620022e683398181016040528101906200003c919062000326565b6040518060400160405280600581526020017f7374616b650000000000000000000000000000000000000000000000000000008152506040518060400160405280600481526020017f53544b4e000000000000000000000000000000000000000000000000000000008152508160039080519060200190620000c09291906200025f565b508060049080519060200190620000d99291906200025f565b505050620000ee3382620000f560201b60201c565b506200050a565b600073ffffffffffffffffffffffffffffffffffffffff168273ffffffffffffffffffffffffffffffffffffffff16141562000168576040517f08c379a00000000000000000000000000000000000000000000000000000000081526004016200015f90620003a5565b60405180910390fd5b6200017c600083836200025a60201b60201c565b8060026000828254620001909190620003f5565b92505081905550806000808473ffffffffffffffffffffffffffffffffffffffff1673ffffffffffffffffffffffffffffffffffffffff1681526020019081526020016000206000828254620001e79190620003f5565b925050819055508173ffffffffffffffffffffffffffffffffffffffff16600073ffffffffffffffffffffffffffffffffffffffff167fddf252ad1be2c89b69c2b068fc378daa952ba7f163c4a11628f55a4df523b3ef836040516200024e9190620003c7565b60405180910390a35050565b505050565b8280546200026d906200045c565b90600052602060002090601f016020900481019282620002915760008555620002dd565b82601f10620002ac57805160ff1916838001178555620002dd565b82800160010185558215620002dd579182015b82811115620002dc578251825591602001919060010190620002bf565b5b509050620002ec9190620002f0565b5090565b5b808211156200030b576000816000905550600101620002f1565b5090565b6000815190506200032081620004f0565b92915050565b6000602082840312156200033957600080fd5b600062000349848285016200030f565b91505092915050565b600062000361601f83620003e4565b91507f45524332303a206d696e7420746f20746865207a65726f2061646472657373006000830152602082019050919050565b6200039f8162000452565b82525050565b60006020820190508181036000830152620003c08162000352565b9050919050565b6000602082019050620003de600083018462000394565b92915050565b600082825260208201905092915050565b6000620004028262000452565b91506200040f8362000452565b9250827fffffffffffffffffffffffffffffffffffffffffffffffffffffffffffffffff0382111562000447576200044662000492565b5b828201905092915050565b6000819050919050565b600060028204905060018216806200047557607f821691505b602082108114156200048c576200048b620004c1565b5b50919050565b7f4e487b7100000000000000000000000000000000000000000000000000000000600052601160045260246000fd5b7f4e487b7100000000000000000000000000000000000000000000000000000000600052602260045260246000fd5b620004fb8162000452565b81146200050757600080fd5b50565b611dcc806200051a6000396000f3fe608060405234801561001057600080fd5b50600436106101165760003560e01c806342623360116100a257806395d89b411161007157806395d89b4114610309578063a457c2d714610327578063a9059cbb14610357578063cda6b84714610387578063dd62ed3e146103a357610116565b8063426233601461025b578063635121591461028b57806370a08231146102bb5780638ffe44a1146102eb57610116565b8063194b4c74116100e9578063194b4c74146101a357806323b872dd146101d3578063313ce5671461020357806339509351146102215780633ccfd60b1461025157610116565b806306fdde031461011b578063095ea7b31461013957806311a76f371461016957806318160ddd14610185575b600080fd5b6101236103d3565b6040516101309190611967565b60405180910390f35b610153600480360381019061014e9190611537565b610465565b604051610160919061194c565b60405180910390f35b610183600480360381019061017e9190611483565b610483565b005b61018d610518565b60405161019a9190611aa9565b60405180910390f35b6101bd60048036038101906101b89190611483565b610522565b6040516101ca9190611aa9565b60405180910390f35b6101ed60048036038101906101e891906114e8565b61053a565b6040516101fa919061194c565b60405180910390f35b61020b61063b565b6040516102189190611ac4565b60405180910390f35b61023b60048036038101906102369190611537565b610644565b604051610248919061194c565b60405180910390f35b6102596106f0565b005b61027560048036038101906102709190611483565b6108bd565b6040516102829190611aa9565b60405180910390f35b6102a560048036038101906102a09190611483565b610906565b6040516102b2919061194c565b60405180910390f35b6102d560048036038101906102d09190611483565b6109ae565b6040516102e29190611aa9565b60405180910390f35b6102f36109f6565b6040516103009190611aa9565b60405180910390f35b610311610ae2565b60405161031e9190611967565b60405180910390f35b610341600480360381019061033c9190611537565b610b74565b60405161034e919061194c565b60405180910390f35b610371600480360381019061036c9190611537565b610c68565b60405161037e919061194c565b60405180910390f35b6103a1600480360381019061039c9190611573565b610c86565b005b6103bd60048036038101906103b891906114ac565b610dbf565b6040516103ca9190611aa9565b60405180910390f35b6060600380546103e290611c98565b80601f016020809104026020016040519081016040528092919081815260200182805461040e90611c98565b801561045b5780601f106104305761010080835404028352916020019161045b565b820191906000526020600020905b81548152906001019060200180831161043e57829003601f168201915b5050505050905090565b6000610479610472610e46565b8484610e4e565b6001905092915050565b600061048e82610906565b9050806105145781600660008473ffffffffffffffffffffffffffffffffffffffff1673ffffffffffffffffffffffffffffffffffffffff16815260200190815260200160002060006101000a81548173ffffffffffffffffffffffffffffffffffffffff021916908373ffffffffffffffffffffffffffffffffffffffff1602179055505b5050565b6000600254905090565b60076020528060005260406000206000915090505481565b6000610547848484611019565b6000600160008673ffffffffffffffffffffffffffffffffffffffff1673ffffffffffffffffffffffffffffffffffffffff1681526020019081526020016000206000610592610e46565b73ffffffffffffffffffffffffffffffffffffffff1673ffffffffffffffffffffffffffffffffffffffff16815260200190815260200160002054905082811015610612576040517f08c379a000000000000000000000000000000000000000000000000000000000815260040161060990611a29565b60405180910390fd5b61062f8561061e610e46565b858461062a9190611bdc565b610e4e565b60019150509392505050565b60006012905090565b60006106e6610651610e46565b84846001600061065f610e46565b73ffffffffffffffffffffffffffffffffffffffff1673ffffffffffffffffffffffffffffffffffffffff16815260200190815260200160002060008873ffffffffffffffffffffffffffffffffffffffff1673ffffffffffffffffffffffffffffffffffffffff168152602001908152602001600020546106e19190611afb565b610e4e565b6001905092915050565b6000600560003373ffffffffffffffffffffffffffffffffffffffff1673ffffffffffffffffffffffffffffffffffffffff168152602001908152602001600020541415610773576040517f08c379a000000000000000000000000000000000000000000000000000000000815260040161076a906119e9565b60405180910390fd5b6000600560003373ffffffffffffffffffffffffffffffffffffffff1673ffffffffffffffffffffffffffffffffffffffff168152602001908152602001600020549050600080600760003373ffffffffffffffffffffffffffffffffffffffff1673ffffffffffffffffffffffffffffffffffffffff16815260200190815260200160002054426108059190611bdc565b905061012c81111561085d576000600261012c836108239190611b51565b61082d9190611b82565b90506108556064610847838761129890919063ffffffff16565b6112ae90919063ffffffff16565b925050610862565b600091505b61086b836112c4565b6108813033858561087c9190611afb565b611019565b7f5405077408131854ba75766348988d5acae271855eecea2d727d1bb33ceb3dcf826040516108b09190611aa9565b60405180910390a1505050565b6000600560008373ffffffffffffffffffffffffffffffffffffffff1673ffffffffffffffffffffffffffffffffffffffff168152602001908152602001600020549050919050565b60008173ffffffffffffffffffffffffffffffffffffffff16600660008473ffffffffffffffffffffffffffffffffffffffff1673ffffffffffffffffffffffffffffffffffffffff16815260200190815260200160002060009054906101000a900473ffffffffffffffffffffffffffffffffffffffff1673ffffffffffffffffffffffffffffffffffffffff1614156109a457600190506109a9565b600090505b919050565b60008060008373ffffffffffffffffffffffffffffffffffffffff1673ffffffffffffffffffffffffffffffffffffffff168152602001908152602001600020549050919050565b600080600760003373ffffffffffffffffffffffffffffffffffffffff1673ffffffffffffffffffffffffffffffffffffffff168152602001908152602001600020541415610a7a576040517f08c379a0000000000000000000000000000000000000000000000000000000008152600401610a7190611a09565b60405180910390fd5b6000600760003373ffffffffffffffffffffffffffffffffffffffff1673ffffffffffffffffffffffffffffffffffffffff1681526020019081526020016000205442610ac79190611bdc565b90506000603c82610ad89190611b51565b9050809250505090565b606060048054610af190611c98565b80601f0160208091040260200160405190810160405280929190818152602001828054610b1d90611c98565b8015610b6a5780601f10610b3f57610100808354040283529160200191610b6a565b820191906000526020600020905b815481529060010190602001808311610b4d57829003601f168201915b5050505050905090565b60008060016000610b83610e46565b73ffffffffffffffffffffffffffffffffffffffff1673ffffffffffffffffffffffffffffffffffffffff16815260200190815260200160002060008573ffffffffffffffffffffffffffffffffffffffff1673ffffffffffffffffffffffffffffffffffffffff16815260200190815260200160002054905082811015610c40576040517f08c379a0000000000000000000000000000000000000000000000000000000008152600401610c3790611a89565b60405180910390fd5b610c5d610c4b610e46565b858584610c589190611bdc565b610e4e565b600191505092915050565b6000610c7c610c75610e46565b8484611019565b6001905092915050565b610c903082610c68565b506000600560003373ffffffffffffffffffffffffffffffffffffffff1673ffffffffffffffffffffffffffffffffffffffff168152602001908152602001600020541415610ce357610ce233610483565b5b610d3581600560003373ffffffffffffffffffffffffffffffffffffffff1673ffffffffffffffffffffffffffffffffffffffff168152602001908152602001600020546113ae90919063ffffffff16565b600560003373ffffffffffffffffffffffffffffffffffffffff1673ffffffffffffffffffffffffffffffffffffffff1681526020019081526020016000208190555042600760003373ffffffffffffffffffffffffffffffffffffffff1673ffffffffffffffffffffffffffffffffffffffff1681526020019081526020016000208190555050565b6000600160008473ffffffffffffffffffffffffffffffffffffffff1673ffffffffffffffffffffffffffffffffffffffff16815260200190815260200160002060008373ffffffffffffffffffffffffffffffffffffffff1673ffffffffffffffffffffffffffffffffffffffff16815260200190815260200160002054905092915050565b600033905090565b600073ffffffffffffffffffffffffffffffffffffffff168373ffffffffffffffffffffffffffffffffffffffff161415610ebe576040517f08c379a0000000000000000000000000000000000000000000000000000000008152600401610eb590611a69565b60405180910390fd5b600073ffffffffffffffffffffffffffffffffffffffff168273ffffffffffffffffffffffffffffffffffffffff161415610f2e576040517f08c379a0000000000000000000000000000000000000000000000000000000008152600401610f25906119a9565b60405180910390fd5b80600160008573ffffffffffffffffffffffffffffffffffffffff1673ffffffffffffffffffffffffffffffffffffffff16815260200190815260200160002060008473ffffffffffffffffffffffffffffffffffffffff1673ffffffffffffffffffffffffffffffffffffffff168152602001908152602001600020819055508173ffffffffffffffffffffffffffffffffffffffff168373ffffffffffffffffffffffffffffffffffffffff167f8c5be1e5ebec7d5bd14f71427d1e84f3dd0314c0f7b2291e5b200ac8c7c3b9258360405161100c9190611aa9565b60405180910390a3505050565b600073ffffffffffffffffffffffffffffffffffffffff168373ffffffffffffffffffffffffffffffffffffffff161415611089576040517f08c379a000000000000000000000000000000000000000000000000000000000815260040161108090611a49565b60405180910390fd5b600073ffffffffffffffffffffffffffffffffffffffff168273ffffffffffffffffffffffffffffffffffffffff1614156110f9576040517f08c379a00000000000000000000000000000000000000000000000000000000081526004016110f090611989565b60405180910390fd5b6111048383836113c4565b60008060008573ffffffffffffffffffffffffffffffffffffffff1673ffffffffffffffffffffffffffffffffffffffff1681526020019081526020016000205490508181101561118a576040517f08c379a0000000000000000000000000000000000000000000000000000000008152600401611181906119c9565b60405180910390fd5b81816111969190611bdc565b6000808673ffffffffffffffffffffffffffffffffffffffff1673ffffffffffffffffffffffffffffffffffffffff16815260200190815260200160002081905550816000808573ffffffffffffffffffffffffffffffffffffffff1673ffffffffffffffffffffffffffffffffffffffff16815260200190815260200160002060008282546112269190611afb565b925050819055508273ffffffffffffffffffffffffffffffffffffffff168473ffffffffffffffffffffffffffffffffffffffff167fddf252ad1be2c89b69c2b068fc378daa952ba7f163c4a11628f55a4df523b3ef8460405161128a9190611aa9565b60405180910390a350505050565b600081836112a69190611b82565b905092915050565b600081836112bc9190611b51565b905092915050565b61131681600560003373ffffffffffffffffffffffffffffffffffffffff1673ffffffffffffffffffffffffffffffffffffffff168152602001908152602001600020546113c990919063ffffffff16565b600560003373ffffffffffffffffffffffffffffffffffffffff1673ffffffffffffffffffffffffffffffffffffffff168152602001908152602001600020819055506000600560003373ffffffffffffffffffffffffffffffffffffffff1673ffffffffffffffffffffffffffffffffffffffff1681526020019081526020016000205414156113ab576113aa336113df565b5b50565b600081836113bc9190611afb565b905092915050565b505050565b600081836113d79190611bdc565b905092915050565b60006113ea82610906565b9050801561145557600660008373ffffffffffffffffffffffffffffffffffffffff1673ffffffffffffffffffffffffffffffffffffffff16815260200190815260200160002060006101000a81549073ffffffffffffffffffffffffffffffffffffffff02191690555b5050565b60008135905061146881611d68565b92915050565b60008135905061147d81611d7f565b92915050565b60006020828403121561149557600080fd5b60006114a384828501611459565b91505092915050565b600080604083850312156114bf57600080fd5b60006114cd85828601611459565b92505060206114de85828601611459565b9150509250929050565b6000806000606084860312156114fd57600080fd5b600061150b86828701611459565b935050602061151c86828701611459565b925050604061152d8682870161146e565b9150509250925092565b6000806040838503121561154a57600080fd5b600061155885828601611459565b92505060206115698582860161146e565b9150509250929050565b60006020828403121561158557600080fd5b60006115938482850161146e565b91505092915050565b6115a581611c22565b82525050565b60006115b682611adf565b6115c08185611aea565b93506115d0818560208601611c65565b6115d981611d57565b840191505092915050565b60006115f1602383611aea565b91507f45524332303a207472616e7366657220746f20746865207a65726f206164647260008301527f65737300000000000000000000000000000000000000000000000000000000006020830152604082019050919050565b6000611657602283611aea565b91507f45524332303a20617070726f766520746f20746865207a65726f20616464726560008301527f73730000000000000000000000000000000000000000000000000000000000006020830152604082019050919050565b60006116bd602683611aea565b91507f45524332303a207472616e7366657220616d6f756e742065786365656473206260008301527f616c616e636500000000000000000000000000000000000000000000000000006020830152604082019050919050565b6000611723601c83611aea565b91507f596f7520686176656e2774207374616b656420616e797468696e672e000000006000830152602082019050919050565b6000611763601a83611aea565b91507f596f75206861766520746f207374616b652066697273742121210000000000006000830152602082019050919050565b60006117a3602883611aea565b91507f45524332303a207472616e7366657220616d6f756e742065786365656473206160008301527f6c6c6f77616e63650000000000000000000000000000000000000000000000006020830152604082019050919050565b6000611809602583611aea565b91507f45524332303a207472616e736665722066726f6d20746865207a65726f20616460008301527f64726573730000000000000000000000000000000000000000000000000000006020830152604082019050919050565b600061186f602483611aea565b91507f45524332303a20617070726f76652066726f6d20746865207a65726f2061646460008301527f72657373000000000000000000000000000000000000000000000000000000006020830152604082019050919050565b60006118d5602583611aea565b91507f45524332303a2064656372656173656420616c6c6f77616e63652062656c6f7760008301527f207a65726f0000000000000000000000000000000000000000000000000000006020830152604082019050919050565b61193781611c4e565b82525050565b61194681611c58565b82525050565b6000602082019050611961600083018461159c565b92915050565b6000602082019050818103600083015261198181846115ab565b905092915050565b600060208201905081810360008301526119a2816115e4565b9050919050565b600060208201905081810360008301526119c28161164a565b9050919050565b600060208201905081810360008301526119e2816116b0565b9050919050565b60006020820190508181036000830152611a0281611716565b9050919050565b60006020820190508181036000830152611a2281611756565b9050919050565b60006020820190508181036000830152611a4281611796565b9050919050565b60006020820190508181036000830152611a62816117fc565b9050919050565b60006020820190508181036000830152611a8281611862565b9050919050565b60006020820190508181036000830152611aa2816118c8565b9050919050565b6000602082019050611abe600083018461192e565b92915050565b6000602082019050611ad9600083018461193d565b92915050565b600081519050919050565b600082825260208201905092915050565b6000611b0682611c4e565b9150611b1183611c4e565b9250827fffffffffffffffffffffffffffffffffffffffffffffffffffffffffffffffff03821115611b4657611b45611cca565b5b828201905092915050565b6000611b5c82611c4e565b9150611b6783611c4e565b925082611b7757611b76611cf9565b5b828204905092915050565b6000611b8d82611c4e565b9150611b9883611c4e565b9250817fffffffffffffffffffffffffffffffffffffffffffffffffffffffffffffffff0483118215151615611bd157611bd0611cca565b5b828202905092915050565b6000611be782611c4e565b9150611bf283611c4e565b925082821015611c0557611c04611cca565b5b828203905092915050565b6000611c1b82611c2e565b9050919050565b60008115159050919050565b600073ffffffffffffffffffffffffffffffffffffffff82169050919050565b6000819050919050565b600060ff82169050919050565b60005b83811015611c83578082015181840152602081019050611c68565b83811115611c92576000848401525b50505050565b60006002820490506001821680611cb057607f821691505b60208210811415611cc457611cc3611d28565b5b50919050565b7f4e487b7100000000000000000000000000000000000000000000000000000000600052601160045260246000fd5b7f4e487b7100000000000000000000000000000000000000000000000000000000600052601260045260246000fd5b7f4e487b7100000000000000000000000000000000000000000000000000000000600052602260045260246000fd5b6000601f19601f8301169050919050565b611d7181611c10565b8114611d7c57600080fd5b50565b611d8881611c4e565b8114611d9357600080fd5b5056fea26469706673582212206b363245fed3e7bed669089ea8bbdef11b244c955aa14fe315c25ff8c32f79e864736f6c63430008000033",
  "immutableReferences": {},
  "source": "//SPDX-License-Identifier: UNLICENSED\r\npragma solidity ^0.8.0;\r\nimport \"@openzeppelin/contracts/token/ERC20/ERC20.sol\";\r\nimport \"@openzeppelin/contracts/utils/math/SafeMath.sol\";\r\n\r\n//import \"https://github.com/OpenZeppelin/openzeppelin-contracts/blob/master/contracts/access/Ownable.sol\";\r\ncontract stakeTokens is ERC20{\r\n    using SafeMath for uint256;\r\n    //address[] internal stakeHolders;\r\n    mapping(address=>uint256) internal stake;\r\n    mapping(address=>address) internal stakeHolders;\r\n    mapping(address=>uint256) public timestampMap;\r\n    uint256 cntr=0;\r\n    constructor(uint256 _totalSupply) ERC20(\"stake\",\"STKN\")\r\n   {\r\n       _mint(msg.sender, _totalSupply);\r\n   }\r\n  \r\n        \r\n         //For staking tokens.\r\n        function stakeToken(uint256 _stakeAmt) public{\r\n            //_burn(msg.sender,_stakeAmt);\r\n            transfer(address(this),_stakeAmt);\r\n            if(stake[msg.sender]==0){ addStakeHolder(msg.sender);}\r\n            stake[msg.sender]=stake[msg.sender].add(_stakeAmt);\r\n            //Adding timestamp.\r\n            timestampMap[msg.sender]=block.timestamp;\r\n        }\r\n   \r\n        \r\n        function isStakeHolder(address _stakeHolderAddr) public view returns(bool){\r\n            \r\n                if(stakeHolders[_stakeHolderAddr]==_stakeHolderAddr){\r\n                     return (true);\r\n                }\r\n            \r\n            return (false);\r\n        }\r\n       \r\n       function addStakeHolder(address _stakeHolderAddr) public{\r\n           (bool holdsStackHolder)=isStakeHolder(_stakeHolderAddr);\r\n           if( !holdsStackHolder){\r\n               stakeHolders[_stakeHolderAddr]=_stakeHolderAddr;\r\n           }\r\n        }\r\n        \r\n        function removeStakeHolder(address _stakeHolderAddr) internal{ \r\n            (bool holdsStackHolder)=isStakeHolder(_stakeHolderAddr);// Need to implement\r\n            if(holdsStackHolder){\r\n                delete stakeHolders[_stakeHolderAddr];\r\n            }\r\n        }\r\n        \r\n        \r\n       //Function to get stake of an addrss.\r\n       function stakeOf(address _stakeHolderAddr) public view returns(uint256){\r\n           return stake[_stakeHolderAddr];\r\n       }\r\n   \r\n        \r\n        function removeStake(uint256 _stakeAmt) internal{\r\n            stake[msg.sender]=stake[msg.sender].sub(_stakeAmt);//subtract amount of stake.\r\n            if(stake[msg.sender]==0) removeStakeHolder(msg.sender);//if stake amount dont exists then remove from mapping.\r\n        }\r\n        \r\n        event evt(uint256 reward);\r\n        \r\n        \r\n        function withdraw() public{\r\n        require(stake[msg.sender]!=0,\"You haven't staked anything.\");\r\n        uint256 userStake=stake[msg.sender];\r\n        uint256 reward;\r\n        uint tt=block.timestamp-timestampMap[msg.sender];\r\n        if ( tt > 5 minutes){\r\n            uint256 interest=(tt/5 minutes)*2;\r\n             reward = (userStake.mul(interest)).div(100);\r\n        }else{\r\n            reward=0;\r\n        }\r\n        \r\n        removeStake(userStake);\r\n        _transfer(address(this),msg.sender,reward+userStake);\r\n        emit evt(reward);\r\n        }\r\n        \r\n        function timeAfterStaked() public view returns(uint timeInMinutes){\r\n            require(timestampMap[msg.sender]!=0,\"You have to stake first!!!\");\r\n            uint inSeconds=block.timestamp-timestampMap[msg.sender];\r\n            uint diff = inSeconds/60 ;\r\n            return diff;\r\n        }\r\n        \r\n         \r\n}",
  "sourcePath": "D:/My-Projects/token_staking/contracts/stakeTokens.sol",
  "compiler": {
    "name": "solc",
    "version": "0.8.0+commit.c7dfd78e.Emscripten.clang"
  },
  "schemaVersion": "3.3.4",
  "updatedAt": "2021-06-21T13:01:26.170Z",
  "devdoc": {
    "kind": "dev",
    "methods": {
      "allowance(address,address)": {
        "details": "See {IERC20-allowance}."
      },
      "approve(address,uint256)": {
        "details": "See {IERC20-approve}. Requirements: - `spender` cannot be the zero address."
      },
      "balanceOf(address)": {
        "details": "See {IERC20-balanceOf}."
      },
      "decimals()": {
        "details": "Returns the number of decimals used to get its user representation. For example, if `decimals` equals `2`, a balance of `505` tokens should be displayed to a user as `5,05` (`505 / 10 ** 2`). Tokens usually opt for a value of 18, imitating the relationship between Ether and Wei. This is the value {ERC20} uses, unless this function is overridden; NOTE: This information is only used for _display_ purposes: it in no way affects any of the arithmetic of the contract, including {IERC20-balanceOf} and {IERC20-transfer}."
      },
      "decreaseAllowance(address,uint256)": {
        "details": "Atomically decreases the allowance granted to `spender` by the caller. This is an alternative to {approve} that can be used as a mitigation for problems described in {IERC20-approve}. Emits an {Approval} event indicating the updated allowance. Requirements: - `spender` cannot be the zero address. - `spender` must have allowance for the caller of at least `subtractedValue`."
      },
      "increaseAllowance(address,uint256)": {
        "details": "Atomically increases the allowance granted to `spender` by the caller. This is an alternative to {approve} that can be used as a mitigation for problems described in {IERC20-approve}. Emits an {Approval} event indicating the updated allowance. Requirements: - `spender` cannot be the zero address."
      },
      "name()": {
        "details": "Returns the name of the token."
      },
      "symbol()": {
        "details": "Returns the symbol of the token, usually a shorter version of the name."
      },
      "totalSupply()": {
        "details": "See {IERC20-totalSupply}."
      },
      "transfer(address,uint256)": {
        "details": "See {IERC20-transfer}. Requirements: - `recipient` cannot be the zero address. - the caller must have a balance of at least `amount`."
      },
      "transferFrom(address,address,uint256)": {
        "details": "See {IERC20-transferFrom}. Emits an {Approval} event indicating the updated allowance. This is not required by the EIP. See the note at the beginning of {ERC20}. Requirements: - `sender` and `recipient` cannot be the zero address. - `sender` must have a balance of at least `amount`. - the caller must have allowance for ``sender``'s tokens of at least `amount`."
      }
    },
    "version": 1
  },
  "userdoc": {
    "kind": "user",
    "methods": {},
    "version": 1
  }
}